:03000000020800F3
:0C080000787FE4F6D8FD758109020847F6
:0409230002080000C6
:100904007F807E967D057C00ED1DAA0470011C4A43
:0E091400600CEF1FAA0670011E4A60EC80F412
:0109220022B2
:0708DE00D2941208E5C29458
:1008E5007F807E967D027C00ED1DAA0470011C4A66
:0E08F500600CEF1FAA0670011E4A60EC80F432
:0109030022D1
:10088C00C2B2C2949000001208DEA3E58264034554
:10089C008370F4E4F583F582D2B2120904C2B21269
:1008AC000904A3E5826403458370EDE4F583F582C6
:1008BC001208DEA3E5826403458370F4E4F583F546
:1008CC0082C3E582940AE583940050B8120904A30C
:0208DC0080EFAB
:10080C0002088CE493A3F8E493A34003F68001F26E
:10081C0008DFF48029E493A3F85407240CC8C333ED
:10082C00C4540F4420C8834004F456800146F6DFBC
:10083C00E4800B0102040810204080900923E47E20
:10084C00019360BCA3FF543F30E509541FFEE493B1
:10085C00A360010ECF54C025E060A840B8E493A378
:10086C00FAE493A3F8E493A3C8C582C8CAC583CAA3
:10087C00F0A3C8C582C8CAC583CADFE9DEE780BE5B
:0109270000CF
:00000001FF
