:03000000020003F8
:0C000300787FE4F6D8FD75810902004A00
:0401260002080000CB
:100107007F807E967D057C00ED1DAA0470011C4A48
:0E011700600CEF1FAA0670011E4A60EC80F417
:0101250022B7
:0700E100D2941200E8C29462
:1000E8007F807E967D027C00ED1DAA0470011C4A6B
:0E00F800600CEF1FAA0670011E4A60EC80F437
:0101060022D6
:10008F00C2B2C2949000001200E1A3E5826403455E
:10009F008370F4E4F583F582D2B2120107C2B21273
:1000AF000107A3E5826403458370EDE4F583F582D0
:1000BF001200E1A3E5826403458370F4E4F583F550
:1000CF0082C3E582940AE583940050B8120107A316
:0200DF0080EFB0
:10000F0002008FE493A3F8E493A34003F68001F278
:10001F0008DFF48029E493A3F85407240CC8C333F2
:10002F00C4540F4420C8834004F456800146F6DFC1
:10003F00E4800B0102040810204080900126E47E2A
:10004F00019360BCA3FF543F30E509541FFEE493B6
:10005F00A360010ECF54C025E060A840B8E493A37D
:10006F00FAE493A3F8E493A3C8C582C8CAC583CAA8
:10007F00F0A3C8C582C8CAC583CADFE9DEE780BE60
:01012A0000D4
:00000001FF
