:10000000020CCAC2EAE4F5E275ED0075EC0053EAB1
:10001000F375DC0275EF0075EE8453EAEF43EA40B6
:1000200043EA8075D21275D8FF75E107D2EAF5E38D
:1000300075E22943D101F5DDF5D3F5D5F5D7F5DF27
:10004000222222021208E709F608DFFA8046E709B1
:10005000F208DFFA803E88828C83E709F0A3DFFA9A
:100060008032E309F608DFFA8078E309F208DFFA64
:10007000807088828C83E309F0A3DFFA8064898230
:100080008A83E0A3F608DFFA805889828A83E0A396
:10009000F208DFFA804C80D280FA80C680D4806972
:1000A00080F28033801080A680EA809A80A880DA6F
:1000B00080E280CA803389828A83ECFAE493A3C801
:1000C000C582C8CCC583CCF0A3C8C582C8CCC583C3
:1000D000CCDFE9DEE7800D89828A83E493A3F6080A
:1000E000DFF9ECFAA9F0EDFB2289828A83ECFAE0D1
:1000F000A3C8C582C8CCC583CCF0A3C8C582C8CC70
:10010000C583CCDFEADEE880DB89828A83E493A3BF
:10011000F208DFF980CC88F0EF60010E4E60C388F2
:10012000F0ED2402B4040050B9F582EB2402B404CB
:100130000050AF232345822390009673BB010689AC
:10014000828A83E0225002E722BBFE02E3228982F8
:100150008A83E49322BB010CE58229F582E5833A88
:10016000F583E0225006E92582F8E622BBFE06E987
:100170002582F8E222E58229F582E5833AF583E4D7
:100180009322BB010689828A83F0225002F722BBA8
:10019000FE01F322BB010A89828A83E0F5F0A3E025
:1001A00022500687F009E71922BBFE07E3F5F009A4
:1001B000E3192289828A83E493F5F074019322E89B
:1001C0008FF0A4CC8BF0A42CFCE98EF0A42CFC8A3C
:1001D000F0EDA42CFCEA8EF0A4CDA8F08BF0A42DB9
:1001E000CC3825F0FDE98FF0A42CCD35F0FCEB8E5A
:1001F000F0A4FEA9F0EB8FF0A4CFC5F02ECD39FE10
:10020000E43CFCEAA42DCE35F0FDE43CFC22EB9F5F
:10021000F5F0EA9E42F0E99D42F0E89C45F022E8C4
:10022000600FECC313FCED13FDEE13FEEF13FFD8CC
:10023000F122ECF0A3EDF0A3EEF0A3EFF022A88200
:100240008583F0D083D082120255120255120255D6
:10025000120255E473E493A3C583C5F0C583C8C5F2
:1002600082C8F0A3C583C5F0C583C8C582C822D0A3
:1002700083D082F8E4937012740193700DA3A3935A
:10028000F8740193F5828883E4737402936860EFD5
:10029000A3A3A380DF8A838982E473E4FFEFC3957D
:1002A000DB501F74842FF582E43400F583E0FEEF09
:1002B0007C007B01240BF9EC3401FAEE1201820F71
:1002C00080DB90008FE0900113F090008EE09001B1
:1002D00014F090008DE0900115F090008CE09001FA
:1002E00016F0900113A3A3E0FFA3E090012ECFF03E
:1002F000A3EFF0E5DB641F601A7F02121369E4903C
:10030000010BF0A3F0A3F0A3F0900118E0FF7B1A1B
:100310000204C890011AE0FF64286004EFB42A3098
:1003200090011CE090012AF090011DE090012BF05B
:1003300090011EE090012CF090011FE090012DF043
:10034000900121E0900109F0900122E090010AF073
:1003500090010BE0645560030204BCA3E0645360A9
:10036000030204BCA3E0644260030204BCA3E06493
:100370004360030204BC900118E0D39400500EA324
:10038000E0FFC394014006EFD39410400F7F0212A8
:100390001369900118E0FF7B240204C890011AE061
:1003A00012026F04320003F203049E0404A6080440
:1003B000A60A03FA1204A61504121A04021B04A6C4
:1003C0001D040A1E042223042A25043A2804682A4C
:1003D00004962F04A655041A5A04A68804A68A0473
:1003E000A68F04A69E04A6A804A6AA04A6AF000091
:1003F00004AE900118E0FF0211C0900118E0FF0266
:100400001250900118E0FF0214AB900118E0FF02B7
:100410001429900118E0FF02151B900118E0FF025B
:100420001528900118E0FF020B0C900118E0FF0264
:1004300009BD900118E0FF0213B590012AE0FCA36A
:10044000E0FDA3E0FEA3E0F50C8E0B8D0A8C099075
:100450000109E0FEA3E0FFE48F108E0FF50EF50D0D
:10046000900118E0FF0206B690012AE0FCA3E0FD2F
:10047000A3E0FEA3E0F50C8E0B8D0A8C0990010918
:10048000E0FEA3E0FFE48F108E0FF50EF50D900156
:1004900018E0FF020844900118E0FF021293900157
:1004A00018E0FF0213F0900118E0FF0212D17F0262
:1004B000121369900118E0FF7B20800C7F02121359
:1004C00069900118E0FF7B207D051213D7E4FD7FC2
:1004D0000112106E2285DB08E5086408600302063D
:1004E000A0900006E0F526A3E07007E526D3947FF0
:1004F000400375267FE4F508900001E0F5279000A1
:1005000000E054606003020667E527B40B00400377
:1005100002066590051AF828287302064D02060C9B
:100520000206650206250206650205E402053B0295
:1005300006650205ED0206030206A3900003E0240F
:10054000FE601914602724E1605824217056752834
:10055000FF752915752AA2750812804B7528FF753D
:100560002915752AB4750820752501803A90000276
:10057000E0F508E508C39404502A75F003E508A4E3
:1005800024F4F582E5F03415F583E493FB740193CC
:10059000FA740293F98B288A29F52A12013CF5088E
:1005A000800580007508FFE526D39508400385087F
:1005B00026E526C39408AF2640027F088F087E00F8
:1005C00078007C007D01AB28AA29A92A120116C354
:1005D000E5269508F526E508252AF52AE43529F5C6
:1005E000290206A3900002E0F5260206A39000006F
:1005F000E524F0E526C3940150030206A375080123
:100600000206A3900002E0F5240206A3900000E099
:10061000541FFFBF020D900004E0FF120FAA8F08C5
:100620000206A3807B900000E0541F6402701C90BF
:100630000003E0FE900002E0FDED4E700C9000041F
:10064000E0FF120ED98F08805A80558053E4900045
:1006500000F0A3F0E526C39402400575080280432C
:10066000852608803E8039900000E0546064207048
:100670002DE5271424FD502B24FB24FD5025240EAA
:1006800060051460128015121563900000EFF0757C
:100690000801752501800C1200428007800280004D
:1006A0007508FFE508B4FF077527FF75DCCF2285C5
:1006B00008DD75DCC0228F08900108E07057121524
:1006C00035EF6008AF081213D302150E850C16859E
:1006D0000B15850A1485091385101A850F19850EC7
:1006E00018850D177D28AF08120C20EF7003020843
:1006F00043900117E030E7089001087402F080157C
:100700007F021213697B247D05AF081213D77D0188
:100710007F0102106E900108E0640260030208434A
:1007200090014DE060030207A675F004E508A424DB
:1007300054F582E5F03401F583E0FCA3E0FDA3E08D
:10074000FEA3E0FFAB0CAA0BA90AA8091201BF90F7
:10075000014912023275F004E508A42454F582E53B
:10076000F03401F583E0FCA3E0FDA3E0FEA3E0FF8D
:10077000AB10AA0FA90EA80D1201BF900149E0F815
:10078000A3E0F9A3E0FAA3E02FFFEA3EFEE93DFD76
:10079000E83CFC90014312023290014D7401F07D5F
:1007A000037F041210CB90014DE064016003020846
:1007B00043D2B4900149E0FCA3E0FDA3E0FEA3E036
:1007C000F5158E148D138C12AF0812144590014943
:1007D000E0FCA3E0FDA3E0FEA3E02440FFE43EFE36
:1007E000E43DFDE43CFC90014912023290012FE00F
:1007F00024C0F090012EE034FFF075D34053D2FCBA
:10080000900143E0FCA3E0FDA3E0FEA3E0FF900124
:1008100049E0F8A3E0F9A3E0FAA3E0FBC312020E5B
:100820004021C2B490014912023E00000000900134
:100830004312023E000000009001087403F0E490AF
:10084000014DF0228F08900108E07049850C168553
:100850000B15850A1485091385101A850F19850E45
:1008600018850D177D2A120C20EF70030209BC9029
:100870000117E020E70A9001087401F053D2F32237
:10088000E4FF1213697B247D05AF081213D7E4FD42
:100890007F010209B9900108E0640160030209BC0C
:1008A00090014DE0707C75F004E508A42454F582B5
:1008B000E5F03401F583E0FCA3E0FDA3E0FEA3E056
:1008C000FFAB0CAA0BA90AA8091201BF900149129B
:1008D000023275F004E508A42454F582E5F03401F1
:1008E000F583E0FCA3E0FDA3E0FEA3E0FFAB10AACC
:1008F0000FA90EA80D1201BF900149E0F8A3E0F97D
:10090000A3E0FAA3E02FFFEA3EFEE93DFDE83CFC50
:1009100090014312023290014D7401F0FD7F0412E8
:1009200010CB90014DE0640160030209BCD2B49089
:100930000149E0FCA3E0FDA3E0FEA3E0F5158E1461
:100940008D138C12AF0812145F900149E0FCA3E0F4
:10095000FDA3E0FEA3E02440FFE43EFEE43DFDE411
:100960003CFC90014912023290012FE024C0F0902B
:10097000012EE034FFF053D2F3900143E0FCA3E0FA
:10098000FDA3E0FEA3E0FF900149E0F8A3E0F9A396
:10099000E0FAA3E0FBC312020E4021C2B490014969
:1009A00012023E0000000090014312023E000000CF
:1009B00000E490014DF07D01FF12106E228F0812AD
:1009C0001535EF6008AF081213D302150E75F00449
:1009D000E508A42450F582E5F03401F583E0FCA39A
:1009E000E0FDA3E0FEA3E024FFFFEE34FFFEED34C4
:1009F000FFFDEC34FFFC781812021F9000C4EFF0EA
:100A000075F004E508A42450F582E5F03401F5837F
:100A1000E0FCA3E0FDA3E0FEA3E024FFFFEE34FF33
:100A2000FEED34FFFDEC34FFFC781012021F900045
:100A3000C5EFF075F004E508A42450F582E5F03424
:100A400001F583E0FCA3E0FDA3E0FEA3E024FFFFAB
:100A5000EE34FFFEED34FFFDEC34FFFC78081202AB
:100A60001F9000C6EFF075F004E508A42450F5824D
:100A7000E5F03401F583A3A3A3E0149000C7F0755B
:100A8000F004E508A42454F582E5F03401F583E090
:100A9000FCA3E0FDA3E0FEA3E0FF781812021F9084
:100AA00000C8EFF075F004E508A42454F582E5F0E1
:100AB0003401F583E0FCA3E0FDA3E0FEA3E0FF78B2
:100AC0001012021F9000C9EFF075F004E508A4248D
:100AD00054F582E5F03401F583E0FCA3E0FDA3E0EA
:100AE000FEA3E0FF780812021F9000CAEFF075F035
:100AF00004E508A42454F582E5F03401F583A3A3AA
:100B0000A3E09000CBF07F0812140D228F0812157D
:100B100035EF600C7B3A7D02AF081213D702150E39
:100B2000E49000C4F0A3F0A3F0A37408F075F004FF
:100B3000E508A42450F582E5F03401F583E0FCA338
:100B4000E0FDA3E0FEA3E0FF781812021F9000C8AA
:100B5000EFF075F004E508A42450F582E5F03401C7
:100B6000F583E0FCA3E0FDA3E0FEA3E0FF78101214
:100B7000021F9000C9EFF075F004E508A42450F5B9
:100B800082E5F03401F583E0FCA3E0FDA3E0FEA3E1
:100B9000E0FF780812021F9000CAEFF075F004E53C
:100BA00008A42450F582E5F03401F583A3A3A3E063
:100BB0009000CBF0A37402F075F004E508A424546F
:100BC000F582E5F03401F583E0FCA3E0FDA3E0FE4F
:100BD000A3E0FF781012021F9000CDEFF075F00433
:100BE000E508A42454F582E5F03401F583E0FCA384
:100BF000E0FDA3E0FEA3E0FF780812021F9000CE04
:100C0000EFF075F004E508A42454F582E5F0340112
:100C1000F583A3A3A3E09000CFF07F0C12140D2264
:100C20008F118D12E516251AFFE5153519FEE5140D
:100C30003518FDE5133517FC75F004E511A42450B3
:100C4000F582E5F03401F583E0F8A3E0F9A3E0FADA
:100C5000A3E0FBC312020E5013E512B42A057F0273
:100C6000121369E4FF1213697B21804A75F004E5D1
:100C700011A42454F582E5F03401F583E0FCA3E0EF
:100C8000FDA3E0FEA3E0FFAB1AAA19A918A817124A
:100C900001BF900113E0F8A3E0F9A3E0FAA3E0FBA1
:100CA000C312020E6021E512B42A047F028002E41E
:100CB000FF1213697B247D05AF111213D7E4FD7F6A
:100CC0000112106E7F00227F0122787FE4F6D8FDAA
:100CD00075812A020D1102155EE493A3F8E493A333
:100CE0004003F68001F208DFF48029E493A3F8546E
:100CF00007240CC8C333C4540F4420C8834004F4F1
:100D000056800146F6DFE4800B0102040810204003
:100D100080901390E47E019360BCA3FF543F30E5C4
:100D200009541FFEE493A360010ECF54C025E06078
:100D3000A840B8E493A3FAE493A3F8E493A3C8C546
:100D400082C8CAC583CAF0A3C8C582C8CAC583CA37
:100D5000DFE9DEE780BE30D965E5D9543024F060A4
:100D60001D24F0602A24F060372430704FE5D954F8
:100D70000F75F003A42466F582E434158031E5D9BB
:100D8000540F75F003A42475F582E434158020E532
:100D9000D9540F75F003A42484F582E43415800F30
:100DA000E5D9540F75F003A42493F582E43415F5C6
:100DB00083740193FA740293F9120295C2D930D860
:100DC0000BE4F5E3C2DAC2D9C2D8F52530DA08C29D
:100DD000DAE5DA30E2042275D8FF22C2B41214D95F
:100DE0007F057E00121492903FFC1214799001321C
:100DF000EFF0903FFCE493FF12147F900134EFF08A
:100E0000903FFD121479900136EFF0903FFDE4938E
:100E1000FF12147F900138EFF0903FFE121479908A
:100E2000013AEFF0903FFEE493FF12147F90013CF3
:100E3000EFF0903FFF12147990013EEFF0903FFFEA
:100E4000E493FF12147F900140EFF01214C41200DB
:100E500003D2AFE52560FCD2B4228F1C8E1B8D1A05
:100E60008C198B1F8A208921E42FF523EE3418F585
:100E700022E51E2401FFE4351DC313F51DEF13F514
:100E80001EAE22AF23E4FCFDFB7A18F9F8D3120260
:100E90000E5045AE22AF23E4FCFD7A30F812020E6C
:100EA0004036AB1FAA20A921120194FDACF0AF235C
:100EB000AE2212134074022523F523E43522F522D5
:100EC00074022521F521E43520F520E51E151E705C
:100ED00002151D14451D70CA22EF14603714603FBF
:100EE00014604714604F2482601214601714601C51
:100EF0002403704CE5D254BF4403801EE5D454BF94
:100F000044038021E5D654BF44038024E5DE54BF6A
:100F100044038027E5D2547F440CF5D27F0022E5BC
:100F2000D4547F440CF5D47F0022E5D6547F440C82
:100F3000F5D67F0022E5DE547F440CF5DE7F0022EB
:100F40007FFF22900108E024FE601514604824FE13
:100F5000600714604A24027050E4900108F0804653
:100F600090011AE06428704190012AE0FCA3E0FDA2
:100F7000A3E0FEA3E0F50C8E0B8D0A8C099001090D
:100F8000E0FEA3E0FFE48F108E0FF50EF50D90014B
:100F900018E0FF0206B67D01E4FF12106E80077DA7
:100FA000017F0112106E53D2F322EF1460431460DC
:100FB0004614604914604C2482601514601D14604E
:100FC0002524037044E5D254BC4402F5D27F0022AC
:100FD000E5D454BC4402F5D47F0022E5D654BC4489
:100FE00002F5D67F0022E5DE54BC4402F5DE7F0028
:100FF0002253D2737F002253D4737F002253D673BF
:101000007F002253DE737F00227FFF2230DE5E905E
:101010000108E014600604703C02029B90011AE093
:10102000B42A2E90012AE0FCA3E0FDA3E0FEA3E099
:10103000F50C8E0B8D0A8C09900109E0FEA3E0FFF0
:10104000E48F108E0FF50EF50D900118E0FF0208E9
:10105000447F0180027F02121369900118E0FF7B38
:10106000247D051213D7E4FD7F0212106E2275D382
:101070000D9000C47455F0A37453F0A37442F0A310
:101080007453F090010FE09000C8F0900110E090D0
:1010900000C9F0900111E09000CAF0900112E090B8
:1010A00000CBF090012FE09000CCF090012EE0906A
:1010B00000CDF0E4A3F0A3F0A3EFF09001087405D5
:1010C000F0ED60067404F053D2FC22ED14601C14A1
:1010D000602B14603C2403704A7401C8EFC8088078
:1010E00002C333D8FCF452965297227401C8EFC859
:1010F000088002C333D8FCFEF4529680237401C8E2
:10110000EFC8088002C333D8FCFE4296EEF4529733
:10111000227401C8EFC8088002C333D8FCFE42968F
:10112000EE429722E4F508E52724FB603A14703F6D
:10113000E526C39408AF2640027F088F087E00781A
:10114000007C007D01AB28AA29A92A120116C3E55B
:10115000269508F526E508252AF52AE43529F529F6
:101160008508DD63DC4022E5264480F5E38003E466
:10117000F5DD75DC02228B0D8A0E890F8D10C39070
:10118000012FE09510F090012EE09400F08510D32F
:10119000AF101510EF601FAB0DAA0EA90F851082BE
:1011A000758300120155FF74C42510F582E43400E4
:1011B000F583EFF080DA53D2FC9001087403F0223B
:1011C000E4FEEE90163593FD74C42EF582E43400EF
:1011D000F583EDF00EBE12EA74422FF582E434017D
:1011E000F583E09000C6F0744E2FF582E43401F5EB
:1011F00083E09000D0F090011EE0FFD394125002E3
:1012000080027F1212140D22C0E0C0F0C083C082A1
:10121000C0D0E8C0E0E9C0E0EAC0E0EBC0E0ECC06C
:10122000E0EDC0E0EEC0E0EFC0E0120D56D0E0FF10
:10123000D0E0FED0E0FDD0E0FCD0E0FBD0E0FAD082
:10124000E0F9D0E0F8D0D0D082D083D0F0D0E03236
:1012500090011BE030E0117508FF750916750A242E
:10126000750B00750C0580201214FD8B088A098906
:101270000A90011EE0FFD394245007750B008F0CD9
:101280008006750B00750C24AB08AA09A90AAD0CE1
:101290000211768F08E4FFFEFDFC900113E0F8A335
:1012A000E0F9A3E0FAA3E0FBC312020E700D900177
:1012B0001BE020E2067D01E4FF80127F0212136929
:1012C0007B247D05AF081213D7E4FD7F0112106E59
:1012D000228F08E4FFFEFDFC900113E0F8A3E0F983
:1012E000A3E0FAA3E0FBC312020E70028008900193
:1012F00017E030E704E4FF80027F021213697B20CD
:101300007D05AF081213D7E4FD7F0102106E8F1C1C
:101310008E1B8D1A8C19E42FFFEE3418FE8F828EEF
:1013200083E493120182740129F9E43AFA0FBF00B1
:10133000010EE51E151E7002151D14451D70DE22DE
:10134000D2AE75A15575A1AA43B108E4F5A18E8569
:101350008F848C8EEDF58F75869A75A15575A1AA2F
:1013600053B1F7E4F5A1C2AE22EF14601014600F80
:101370002402701BE5D254BF4403F5D2228008E555
:10138000D254BF4403F5D2E5D2547F440CF5D222A7
:1013900001250052013012033200300032003000CB
:1013A00030003200310038004101080041014D0099
:1013B00041014F00008F08121535EF600E7B3A7D1A
:1013C00002AF081213D71D7F0180047D01E4FF12D4
:1013D000106E227B3A7D0274422FF582E43401F5CF
:1013E00083EDF0744E2FF582E43401F583EBF022A7
:1013F0008F08121535EF60147B3A7D02AF08121387
:10140000D71D7F0112106EE4FF12136922EFFDC396
:1014100090012FE09DF090012EE09400F08FD353C7
:10142000D2FC9001087403F02290011EE030E00D20
:101430007B207D051213D77D017F0180047D01E4AF
:10144000FF12106E22EF70167B017A0079C4AF157F
:10145000AE14AD13AC12F51D751E4012130E22EF23
:1014600070167B017A007984AF15AE14AD13AC12FF
:10147000F51D751E40120E5A22E493C4540FFFCF7F
:10148000540FCFEFD39409EF40042437FF222430C8
:10149000FF22CDEFCDCCEECCED4C600E7FE87E038D
:1014A0001214EBED1D70F11C80EE228F087D01E41B
:1014B000FF12106E90011EE05403FFBF0205AF083B
:1014C0001215412290015012023E0000000C9001C2
:1014D0005412023E000002002275A15575A1AAE532
:1014E000B954F84405F5B9E4F5A122EF4E600D05B5
:1014F000A105A105A1EF1F70F21E80EF22EF70077A
:101500007BFF7A167900227B007A00790022E4F5CD
:10151000D353D2FC9001087406F0228F087BFF7A27
:101520001679297D040211768F087BFF7A16792DB2
:101530007D08021176EF700690014FE0FF227F01D7
:1015400022EF700590014F04F02285DB0863DC80F8
:10155000227D017F040210CB120DDB021551121502
:101560005880FE7F0022FF154AFF100CFF0041FF4C
:101570000041FF0041FF0041FF0041FF0041FF002B
:1015800041FF0041FF1124FF0F43FF0041FF0041D5
:10159000FF0041FF04D5FF0041FF0041FF0041FF74
:1015A000004112011001000000083D4107213412E2
:1015B0000102030109022000010100803209040038
:1015C00000020806500007058102400000070501DF
:1015D00002400000040309040C03430048003500E6
:1015E0003500320010035500530042002D004D001D
:1015F00053004300FF15D4FF15D8FF15E401013057
:10160000008004021F0000005743482020202020B3
:101610004348353531205553422D4D53432020202A
:10162000312E302000000000000300000000060002
:101630000000000000700000000000000A00000030
:1016400000000000000000FFFFFFFFFFFFFFFFFFA3
:10165000FFFFFFFFFFFFFFFFFFFFFFFFFFFFFFFF9A
:10166000FFFFFFFFFFFFFFFFFFFFFFFFFFFFFFFF8A
:10167000FFFFFFFFFFFFFFFFFFFFFFFFFFFFFFFF7A
:10168000FFFFFFFFFFFFFFFFFFFFFFFFFFFFFFFF6A
:10169000FFFFFFFFFFFFFFFFFFFFFFFFFFFFFFFF5A
:1016A000FFFFFFFFFFFFFFFFFFFFFFFFFFFFFFFF4A
:1016B000FFFFFFFFFFFFFFFFFFFFFFFFFFFFFFFF3A
:1016C000FFFFFFFFFFFFFFFFFFFFFFFFFFFFFFFF2A
:1016D000FFFFFFFFFFFFFFFFFFFFFFFFFFFFFFFF1A
:1016E000FFFFFFFFFFFFFFFFFFFFFFFFFFFFFFFF0A
:1016F000FFFFFFFFFFFFFFFFFFFFFFFFFFFFFFFFFA
:10170000FFFFFFFFFFFFFFFFFFFFFFFFFFFFFFFFE9
:10171000FFFFFFFFFFFFFFFFFFFFFFFFFFFFFFFFD9
:10172000FFFFFFFFFFFFFFFFFFFFFFFFFFFFFFFFC9
:10173000FFFFFFFFFFFFFFFFFFFFFFFFFFFFFFFFB9
:10174000FFFFFFFFFFFFFFFFFFFFFFFFFFFFFFFFA9
:10175000FFFFFFFFFFFFFFFFFFFFFFFFFFFFFFFF99
:10176000FFFFFFFFFFFFFFFFFFFFFFFFFFFFFFFF89
:10177000FFFFFFFFFFFFFFFFFFFFFFFFFFFFFFFF79
:10178000FFFFFFFFFFFFFFFFFFFFFFFFFFFFFFFF69
:10179000FFFFFFFFFFFFFFFFFFFFFFFFFFFFFFFF59
:1017A000FFFFFFFFFFFFFFFFFFFFFFFFFFFFFFFF49
:1017B000FFFFFFFFFFFFFFFFFFFFFFFFFFFFFFFF39
:1017C000FFFFFFFFFFFFFFFFFFFFFFFFFFFFFFFF29
:1017D000FFFFFFFFFFFFFFFFFFFFFFFFFFFFFFFF19
:1017E000FFFFFFFFFFFFFFFFFFFFFFFFFFFFFFFF09
:1017F000FFFFFFFFFFFFFFFFFFFFFFFFFFFFFFFFF9
:10180000EB3C904D53444F53352E30000201010004
:101810000210000C00F80100200040000000000051
:1018200000000000000029680673844E4F204E41DE
:101830004D4520202020464154313220202033C9FC
:101840008ED1BCFC7B1607BD7800C576001E5616EF
:1018500055BF2205897E00894E02B10BFCF3A40618
:101860001FBD007CC645FE0F384E247D208BC199DC
:10187000E87E0183EB3A66A11C7C663B078A57FC35
:10188000750680CA0288560280C31073ED33C9FE04
:1018900006D87D8A461098F7661603461C13561E16
:1018A00003460E13D18B7611608946FC8956FEB82B
:1018B0002000F7E68B5E0B03C348F7F30146FC11EB
:1018C0004EFE61BF0007E82801723E382D74176094
:1018D000B10BBED87DF3A661743D4E740983C72059
:1018E0003BFB72E7EBDDFE0ED87D7BA7BE7F7DACB8
:1018F0009803F0AC9840740C487413B40EBB070006
:10190000CD10EBEFBE827DEBE6BE807DEBE1CD1628
:101910005E1F668F04CD19BE817D8B7D1A8D45FEBD
:101920008A4E0DF7E10346FC1356FEB104E8C200EF
:1019300072D7EA00027000525006536A016A109191
:101940008B4618A22605969233D2F7F691F7F64207
:1019500087CAF7761A8AF28AE8C0CC020ACCB801A4
:1019600002807E020E7504B4428BF48A5624CD1395
:101970006161720A40750142035E0B497577C303CA
:101980001801270D0A496E76616C696420737973BA
:1019900074656D206469736BFF0D0A4469736B2075
:1019A000492F4F206572726F72FF0D0A5265706C7D
:1019B00061636520746865206469736B2C20616EB7
:1019C00064207468656E20707265737320616E792F
:1019D000206B65790D0A0000494F2020202020202F
:1019E0005359534D53444F532020205359537F0193
:1019F0000041BB000760666A00E93BFF000055AA92
:101A0000F8FFFF03400005600007800009F0FF00B9
:101A100000000000000000000000000000000000C6
:101A200000000000000000000000000000000000B6
:101A300000000000000000000000000000000000A6
:101A40000000000000000000000000000000000096
:101A50000000000000000000000000000000000086
:101A60000000000000000000000000000000000076
:101A70000000000000000000000000000000000066
:101A80000000000000000000000000000000000056
:101A90000000000000000000000000000000000046
:101AA0000000000000000000000000000000000036
:101AB0000000000000000000000000000000000026
:101AC0000000000000000000000000000000000016
:101AD0000000000000000000000000000000000006
:101AE00000000000000000000000000000000000F6
:101AF00000000000000000000000000000000000E6
:101B000000000000000000000000000000000000D5
:101B100000000000000000000000000000000000C5
:101B200000000000000000000000000000000000B5
:101B300000000000000000000000000000000000A5
:101B40000000000000000000000000000000000095
:101B50000000000000000000000000000000000085
:101B60000000000000000000000000000000000075
:101B70000000000000000000000000000000000065
:101B80000000000000000000000000000000000055
:101B90000000000000000000000000000000000045
:101BA0000000000000000000000000000000000035
:101BB0000000000000000000000000000000000025
:101BC0000000000000000000000000000000000015
:101BD0000000000000000000000000000000000005
:101BE00000000000000000000000000000000000F5
:101BF00000000000000000000000000000000000E5
:101C0000F8FFFF03400005600007800009F0FF00B7
:101C100000000000000000000000000000000000C4
:101C200000000000000000000000000000000000B4
:101C300000000000000000000000000000000000A4
:101C40000000000000000000000000000000000094
:101C50000000000000000000000000000000000084
:101C60000000000000000000000000000000000074
:101C70000000000000000000000000000000000064
:101C80000000000000000000000000000000000054
:101C90000000000000000000000000000000000044
:101CA0000000000000000000000000000000000034
:101CB0000000000000000000000000000000000024
:101CC0000000000000000000000000000000000014
:101CD0000000000000000000000000000000000004
:101CE00000000000000000000000000000000000F4
:101CF00000000000000000000000000000000000E4
:101D000000000000000000000000000000000000D3
:101D100000000000000000000000000000000000C3
:101D200000000000000000000000000000000000B3
:101D300000000000000000000000000000000000A3
:101D40000000000000000000000000000000000093
:101D50000000000000000000000000000000000083
:101D60000000000000000000000000000000000073
:101D70000000000000000000000000000000000063
:101D80000000000000000000000000000000000053
:101D90000000000000000000000000000000000043
:101DA0000000000000000000000000000000000033
:101DB0000000000000000000000000000000000023
:101DC0000000000000000000000000000000000013
:101DD0000000000000000000000000000000000003
:101DE00000000000000000000000000000000000F3
:101DF00000000000000000000000000000000000E3
:101E0000416C657869323032300000080000000013
:101E10000000000000001E8B525000000000000077
:101E20004133004400A8523B75146F0F00053A7906
:101E300034004B0042002E00430000004F004D00D4
:101E40003344B6AFBBAD7E31434F4D200062C08BF3
:101E50005250525000000E8B583A02000010000001
:101E60000000000000000000000000000000000072
:101E70000000000000000000000000000000000062
:101E80000000000000000000000000000000000052
:101E90000000000000000000000000000000000042
:101EA0000000000000000000000000000000000032
:101EB0000000000000000000000000000000000022
:101EC0000000000000000000000000000000000012
:101ED0000000000000000000000000000000000002
:101EE00000000000000000000000000000000000F2
:101EF00000000000000000000000000000000000E2
:101F000000000000000000000000000000000000D1
:101F100000000000000000000000000000000000C1
:101F200000000000000000000000000000000000B1
:101F300000000000000000000000000000000000A1
:101F40000000000000000000000000000000000091
:101F50000000000000000000000000000000000081
:101F60000000000000000000000000000000000071
:101F70000000000000000000000000000000000061
:101F80000000000000000000000000000000000051
:101F90000000000000000000000000000000000041
:101FA0000000000000000000000000000000000031
:101FB0000000000000000000000000000000000021
:101FC0000000000000000000000000000000000011
:101FD0000000000000000000000000000000000001
:101FE00000000000000000000000000000000000F1
:101FF00000000000000000000000000000000000E1
:1020000033F6BF0020B510F3A58CC8050002506858
:102010001301CB0E1FBEA101BF00010657B811016D
:10202000BB211389074B4B4879F9AD86E08BC8BDBE
:10203000FFFFE820003D0001741A7F03AAEBF32D97
:10204000FF0050E80F005AF7D88BD8268A01AA4A19
:1020500075F9EBDECB57BB21138BC140F727F7F5A2
:102060008BFBBA11014F4F4A39057FF9528BC5F7E7
:1020700025F7372BC895F76502F737952BE8FE0E45
:10208000FE107906C606FE100746D014D1D1D1E560
:1020900079EC5AB81101FF074B4B483BD075F75FFD
:1020A000C383F783A65D5982CDB20842460957A97A
:1020B000C5CAAA1B4F52B4923FAB6E9EA81DC60361
:1020C000FC0E6AE7AEBB5F7B10B8B4F708E2BF3620
:1020D0004E399D79293F0AF9365216FB05E8E5A6E7
:1020E000C2E9B043D3A3CFD3FDFDCBD14C5EE063B7
:1020F0005886BB3E09C120BCCC91A3478170B3D6A2
:102100001A9EC2C912E74EADF45FE330E90939D730
:10211000E8F9F4D244E8D722BEE2CE8825CF304A8F
:10212000A829AE3F47C62D85E97354130BE6E0346A
:1021300065E2508A89185FCE7099035F42BFEB0752
:10214000AED0CA05228D22A5B7F09081BC7ABCDC46
:1021500005DBC06A02E55738BE60CBACBAA53B9D33
:10216000F17738A684D13CAF49D86A45A276602180
:1021700012C0C244F25EBBE537A92BEC4A8C4CF28C
:10218000F7A958712BBA6DD66AE56046E0DAE5B971
:1021900090E5A3F77F316058F0C488104E3CA3EE61
:1021A0004E11558F0A92EBDBAD7A9C0FDB5A2896C5
:1021B000DA87AE91912DE35EEADF06957167714093
:1021C000CED12E316DC19CD86A769B4AE83644D672
:1021D000760D3005FFD41BAC1F326531BF55260B81
:1021E000A455E15D5E16ED97486C77FB81860EF98C
:1021F00018BDD4F48BDE1DBA0D477503894B3EDC48
:1022000027861CD0178948D1A68DD42B544E8FB069
:1022100002E16B1A7578EA219113C0CF78A0ABF375
:1022200035C6B4C8908DD745E70C5BA4BA5210648C
:10223000F54A50B7EC462215238430815CDF615AA1
:102240008F67C463576DF72692A31FE503A500545B
:102250004108487C269033829C91B0AB785DDF9931
:10226000E0B9FC0536ACD94991AB20A2634889CED0
:102270005C6064F063D9A8383BD3E64C8C23344EC1
:102280002051935E6DB47A229B4CF2D3C4F8036F55
:102290004740F4F8459B83F3830631D000178283CF
:1022A000DC67F96277903BD9ECF35596B8D9DB79C6
:1022B00055F1E58C5EF2E52EB00B6EE28125938E32
:1022C000B5DD5B46F9AFED0612CFC91DF0F73B1641
:1022D0002DC658738DE95FFD5AB6A1944D1A08FFBB
:1022E000EBB70680C78683B6B9FD1CE00CC32EA0F1
:1022F0002F0B3E036B29E127851CEA6DDFB3A3EDAD
:10230000654A9A593B540E4BAE9E27F04D3B0C4C00
:1023100046B7E5571B1F1FBB8086F5B7EF7352BF4B
:102320002CC7ED0AB78102F3903EEECC6CEB0F3870
:10233000016C68B10D4578B20FF683B0C433DFB1DC
:10234000D191981E81A5E2599FF48CB67208A78C92
:10235000F60EA3B21FD9D323F07C5E5F68618B4574
:10236000DA1D91EC8D4EEA1A388594AAACF204F687
:10237000C4E5928E9A4E83E173E8CF2A5C2B7EF1FE
:1023800030028AE6281A3BCEBC96AA7FEB87CD8B1B
:10239000962D09597AA01A43629A9E4FFF8ED9CE84
:1023A000D6A47079CD65FA2E921429F76C744B4936
:1023B0006080BBFF41BB2D60333F98779A01EEA64A
:1023C000A3DABCBAE9F372F47CC35902A644A4C8E8
:1023D000C85493CEBD69BBB943212CC4EA4A5C3FC3
:1023E0007560F2B491CA0982E30AE9A620B9765071
:1023F000ED47E9FE6D4134132F282F4EF4DA0E3CE1
:10240000786CB179874598A4D4C3B329C24A8BEDBF
:10241000A654E21B316260FF2C1D210015B24E5CF8
:102420000C020D83FAA2F38A0512724AC7447C910A
:10243000D4BE0B0AF27052FBB4A2DF89DEFFC49651
:1024400073C90CEDD3C98E5CDC8ED13BDE8C53A2FC
:102450008BF9E991DDD6DF6E74D1DD34608F9E3269
:102460007F3BEC79A3834578B42F1C507B7A97B0DF
:102470009D2D0CDD8A26CD7D8C4C5A8A4CF9A411F9
:10248000F92C6C92E9B5CB56898CBEF664FA2543DB
:10249000FA6FE2C83A18A8F0E9F4C286E62B44675E
:1024A0004AB93409ED5F334262D48A1E5B3167CD8D
:1024B0003D716D83FD362069EA01C3E6E6DE99AA27
:1024C00007115B598A1F438352EA5D8C6A69C7030F
:1024D000EB4E3B88A55FB16E275F035C280C9B6CBD
:1024E000C3F8E5B9D611D68BFA5C08C701EB45DB1A
:1024F000F36C9F16466151EDDF0FBBC0C41E6468CC
:10250000980479309472DFD4CD1F7F72C6822E7901
:10251000474E8C4BA2C7E236DF76FDA4B64EDB9663
:10252000403B8BB5D48564C6002CAD9D27149982A1
:102530004BBC09FA94B5DB7C98EB0B13A7B0791D63
:102540007EC545AA2049BEFF9D64005D0CEC0605D2
:10255000ADF2386BED7AD6B2C72E6AA6124BFF5594
:10256000203B0A770FB9009D574AADCEA4D3FF0197
:102570004FFB5354880F01ED4B5615C8DC28BFF2B2
:1025800072D4101F9942699E78E247829331D02D10
:10259000BE9F93939A1B80C0100C5378A0262A9656
:1025A0004F744B16C79C8DADACFB1615C6FDC9A468
:1025B0001448624720C941ED61F89BF8FFBA3950D1
:1025C0006587EEBDCE95C0FBA57ED8CD27FD2C74CA
:1025D00003C11B89B951D5E3DAEF9E06F0AAA9A77A
:1025E000FB874C5DCDFF65368C736F09C6789AB654
:1025F00077DBDF81683BB8AE5DE1AFD4E6668CD6B1
:10260000A4839F373C01DCA2A657C2201B9075DF34
:10261000CDA562A53679FB358A9BB0A0A5C3376FDF
:102620008072BC52308D9F7A64D3074145D8689739
:10263000F2AA1CA16C7C9D327DAD15B153E3338AA7
:10264000EDE949D4CFDC96223736119D7FF04DE07D
:102650006231B1C769C479AC2001E83C6A8C32CBE5
:1026600052633668F4102B9C214FDF5D60923991E4
:10267000E2F9C97DCA48033F21DD6C0F232E613A80
:102680009FBAC3F94E07EAEDEF714A723AED233D66
:1026900077B5EDD51DF6A499FAEF98DD029880B6CE
:1026A0007CA362967B8EBF7B819F9ACE3F12402E89
:1026B00025DB8416DD2E860FF4B27E5EB4146AF339
:1026C00029B1A457D5A8176F87A4745B9B1779F11C
:1026D000EC33C8F01DB27EA84D957F5F09D51A5A1C
:1026E00045F441C60D3FEB662AC0E85B3CBD50ADEA
:1026F000F1539D2E459AD87D2C17A86E1548133995
:1027000053ED3D78AD0F3A65A33E2EFACA07944AC1
:102710001FB4D87E478A8EDEE77E34C1697F6AAAFD
:102720006658183124721322348A563687DFC20D58
:102730008E3F71A25F258B8D0478FDC945D15579F7
:10274000C19F13841BC805DB95D07C64962051C4BF
:10275000E05EEE478A11ACFB09E0BB40DB868412E9
:1027600093B9C9F29C6347C9EBAD013EFA6D3F0ACC
:10277000645B5856270FCA5DE030BC3E105DEC1715
:10278000288505518E95A3943AA8F196F20F295CFD
:1027900097DC47DB9D6C63E8E7F0E40A70F8F147EB
:1027A00054D32D327CEFBB9AB41B002BD6DDE7301F
:1027B0000BA275C7F5D031D7D28AB0AC1C6D603A88
:1027C000F7C2DB1E6D07F68F3588E57F3C26813426
:1027D000A032A325186E73B2A0F1CB8661E7658B9A
:1027E0007698196FC0629BA3CC185E4012972BD0CD
:1027F0001579DE19EADF7A592FB5D73952E206F199
:1028000003A0A5D91B88934D30C82DF5DB55EA856B
:102810006F0A3FDCBD57156AA3A33E8EAD2DDAA02B
:10282000CA757C578BC5CB0B1D2C8EC6962E6D5949
:10283000837D6472CA802E06A4FFF6F2D51E0704BB
:10284000BA346E098625AA4EE07FF532473E7C43B6
:10285000D828C41C111DBD3303B5CA13433402B1BB
:10286000A057ED9D3C23D445B26E816EAF3E67907C
:10287000BE59A54534534685D125EE7DCBA4DB1248
:10288000C3AA17619AFB664076FE3A6996C0911416
:10289000A75DCC9FF67359EEB855972026FF99ECAB
:1028A0007241B527216EAE8AD0E4D3DA6FC453C526
:1028B000F8B3A7A15D6693D8B189402392C090FB7D
:1028C000CBE76B4E51005D57F7CD01E288BF449FC7
:1028D000EFC433CEFA4646A1860B7A846666B90207
:1028E000EC10C6A1D4C11833B1D10218AD2F53E4F6
:1028F000B93359BE3CAF804C8AD5760C3BA7E297E2
:102900009415754D17D597CFF94AD06EBB2720FC8B
:10291000F1F509A8DF4DB65DF01D693B763582A45F
:10292000F35664395B6BB307E7058E821122A81A50
:10293000DBC83E674A037E7251D63D1A1CF6B8DAF0
:102940004B188A159DD0A484963ECD03F93A30F3F6
:10295000FB8F6E0273EB529395CFDC6F48FBABD2CB
:10296000A970B4E2238D7286A8FA78981DC5FE8AF4
:1029700051882BB758B0CAAE408A3332750106C0B1
:10298000D4B7DA2AA7BBADF748985ABCD3D1E6161C
:1029900097C380AB73AC3211411F0D5DAA00DCD927
:1029A0006EFC3006EF116027A25FEB5FB93508239C
:1029B00004BE10C0853E55B382FDF7C3249F2D830E
:1029C000943236DEFF7C877F4A80070223CFA452F1
:1029D000EB3E19A0B40A941A4058D9166DC064C4CD
:1029E00069ED604665CBDF58380051C3ADA037E4D0
:1029F000CFABF76C247D0948654A9F91AD1C79A443
:102A0000A178550CE8445B0DEF51BDEA2DA7425764
:102A1000AB3A4F020B03196A4D72765C97006CC596
:102A20005DBCDDE781CF8D3438503C9858CC41AA4D
:102A30009990AFFE4E9677ED5418CE2CD15D34CBE5
:102A40007950FF289644E0516406A8B76E8C62C4A2
:102A50006695814F8CF626BAEA5DD279B1E4E92910
:102A6000FC0AFDB3858CE652DD33BD5DC739EF0648
:102A7000EF9EA66A619C9FD554B4FAA1D4109BFF27
:102A80007E33115299C7266EA1368AADEE487A2C54
:102A90007FD5B7278A6B370C7139859CBAA80A177E
:102AA000B9D0515695C23B05A731C58B5C956E4C8C
:102AB000896F17EFD45A0A7765E149B2E872AC3CE6
:102AC000F06B71FA03C7CAFCADF95522EC582F1C04
:102AD000FA29CF73B4AD515CF86670595D703ED180
:102AE0003FC4EBECF107786A93679F44FCCB5B959E
:102AF000FF74C0B7427726C9AA8CED39A2DB9CB31C
:102B0000EB3D4A1E9B89E4D8A82774EFA3EDA524CA
:102B10005DBBABD0FEA129ABDF750AA62300CCF1CB
:102B200014729B1A557EE5D1DA98DCC4CFAB34BA67
:102B30008DDE4A590613DDD8443C0EBB5695AE9740
:102B4000E23B49E59A6BA253C13335241B3317C3CB
:102B50008A8C123D3D4E5B752230674FA05D3A78FE
:102B6000880A113507B1774232A8C3BB20FB98050C
:102B7000D6ACE73A633590939E44242E1BD78CAA9B
:102B800029534DD9ABEBE60156C4FD54A3BD145BEC
:102B9000B08FCEBE232493C44818A3E704054B7816
:102BA000CC79DD0356A4EDDD5F98411B684CC1BBB9
:102BB00041C21E3E948EEF281E0B760E4F36B10C8E
:102BC0006EE2181720FC35401FE46DA418BBBCD57D
:102BD0009EEA8586AFAF63D4136692C42B6984CA1C
:102BE000232BD366816B817326048536214C49449F
:102BF000756439163CEDE06D447545304368C07826
:102C0000FCD0170BEB813EC3BA1B0F4DAEC5551F51
:102C10000C39125D0865F13459DEDD9856174338DA
:102C200066499AEBDBC1875138CCB75F98FD43BE4C
:102C30002DBB74F3F8F2363DA434A57ED226CC84A5
:102C40001FEA56F08018694D8841FC56FD413B1E35
:102C50000E09274FF63B624E5A1B2A4E858CB24F07
:102C600079EF594E0E733DBDC4CA60E74A4790B52F
:102C7000082AF04EDCBA66AE482B3173A2110C3232
:102C8000FF5414776BD6584BBFEEF66ABCDD018853
:102C90000DDAA90F8124C5F8729ADBD5C82A80A95C
:102CA00016D7C6B191C0A99540B5B3A82A28C69237
:102CB00016AB547DF8935F3A17C845A9F0E071232D
:102CC000765338A5A1CCD4F1F23C2B4643A1D5BA1A
:102CD0000ED7197AC2E18F671D0D989DA1799D1BB2
:102CE000207F4DE7BFF9FFFEAA28AB8F0C4D503374
:102CF000E326FC3C033A2B2612F7018FEE974CE6B5
:102D0000062BD91FA14A7744D48BB73E5E2D18C33A
:102D1000546899A88D92969E9DAB3338FFB8EE7893
:102D2000C67BB58495D30627AE5D27380A388EF06A
:102D300001A5964BD79B42E56F57754CE9782D5B03
:102D4000ECB6D229E2A892959C652A3EBF8DE0BFE1
:102D5000B3ACC80E7E13AF88267D485AC7392936D2
:102D6000D290E83B03D0611AD2E8A80FBA8EA19F97
:102D7000DF12AB54072398DE62AF4C7ED4FB6B02AC
:102D80006E404037B773F2D881BE29D299C07325FF
:102D90001A3C92756EBDD779790414C04E99576666
:102DA0009374ECB0297CDF61B0033AD1C3FAA4F785
:102DB0000F9FD30F00B92A5A3AC58825B8B9CC82DB
:102DC00003573AE17B517570A6741ACACB03186891
:102DD000CA77FE1BADCD687F3685FCB74FA011DAF0
:102DE00069FA7987D6B921DD3E70DBDC84D46ED1F7
:102DF0002004AFF632A28E0D5425FE07540E7A74CD
:102E00004BA04BF7F4E87422E99870FB252EF4648C
:102E10005775288545533A2EE23C5436E929066712
:102E20005943107EC149CD5EF9970A585F8A114F08
:102E30003D9AE22B2258FABEFC69917A8C3F779F2B
:102E4000C93B54262393B385DEAEF5BDC5474CC4BC
:102E5000CD5EADBC8FBA31F6E470FB6EA796D5ADF2
:102E600010803943974F10CC1B8F8DCD4C6304D805
:102E70001E8570416CA8EBDF7F36C560A71209166E
:102E800073FE753A2D40297DAA0A5C02292300A60B
:102E9000E56B246D9B20E507CB40B038599CA769B2
:102EA0006A70D338EFE2B2113EEA2AF92B2E431DA5
:102EB00065CFD61BEF835A5FE6C56216CA5E4CA685
:102EC00039E4532D23D25E7E15548A08B73DBB8862
:102ED00059B99EA27C421FA2773C5B096DFA8F21F3
:102EE000461A3EEDCE49561D292D7003A76F75ACCD
:102EF0000187FF2786734928852D977A840E373DF1
:102F00008610214CE274626B51708F1572F381B29E
:102F1000A99D8A63AD1BD5AA8ADC963CE74716516A
:102F2000FC875009B760293352FBB0DF70C5654A92
:102F3000603B0CD7A8294751F78A77F3993F381699
:102F400060DE6827B2240762A2FD4086B275C33CEA
:102F50002F3DFA09D9A99A713CCE469400F9BC4696
:102F60007FB82E857F7DD38DEAB463815910BB571E
:102F7000D0B6ABE183741E25D5737818B160620CAE
:102F8000F4768D17D5ED2323E4F632645A61096394
:102F9000F69257D52940D63BBA63721800251B0715
:102FA000EE7F254AFA06741946E3E8897AC6565434
:102FB000A743134EBF97A56F992FAC334DFA583ADC
:102FC0005A0AA41A7462C84F3B7809D7EE7EEE2DD8
:102FD000693040EA47823B858E03238F744E083563
:102FE000AB74040157D585B16B1EF47D1ED21EB3A0
:102FF000FEF31210323951482D6FE5D3A38C080827
:00000001FF
